{"abi":[{"type":"constructor","inputs":[{"name":"_subscriptionId","type":"uint256","internalType":"uint256"},{"name":"_coordinatorAddress","type":"address","internalType":"address"},{"name":"_keyHash","type":"bytes32","internalType":"bytes32"}],"stateMutability":"nonpayable"},{"type":"function","name":"acceptOwnership","inputs":[],"outputs":[],"stateMutability":"nonpayable"},{"type":"function","name":"lastRequestId","inputs":[],"outputs":[{"name":"","type":"uint256","internalType":"uint256"}],"stateMutability":"view"},{"type":"function","name":"owner","inputs":[],"outputs":[{"name":"","type":"address","internalType":"address"}],"stateMutability":"view"},{"type":"function","name":"rawFulfillRandomWords","inputs":[{"name":"requestId","type":"uint256","internalType":"uint256"},{"name":"randomWords","type":"uint256[]","internalType":"uint256[]"}],"outputs":[],"stateMutability":"nonpayable"},{"type":"function","name":"requestIds","inputs":[{"name":"","type":"uint256","internalType":"uint256"}],"outputs":[{"name":"","type":"uint256","internalType":"uint256"}],"stateMutability":"view"},{"type":"function","name":"requestRandomWords","inputs":[],"outputs":[{"name":"requestId","type":"uint256","internalType":"uint256"}],"stateMutability":"nonpayable"},{"type":"function","name":"s_request","inputs":[{"name":"requestId","type":"uint256","internalType":"uint256"}],"outputs":[{"name":"fulfilled","type":"bool","internalType":"bool"},{"name":"exists","type":"bool","internalType":"bool"}],"stateMutability":"view"},{"type":"function","name":"s_vrfCoordinator","inputs":[],"outputs":[{"name":"","type":"address","internalType":"contract IVRFCoordinatorV2Plus"}],"stateMutability":"view"},{"type":"function","name":"setCoordinator","inputs":[{"name":"_vrfCoordinator","type":"address","internalType":"address"}],"outputs":[],"stateMutability":"nonpayable"},{"type":"function","name":"transferOwnership","inputs":[{"name":"to","type":"address","internalType":"address"}],"outputs":[],"stateMutability":"nonpayable"},{"type":"event","name":"CoordinatorSet","inputs":[{"name":"vrfCoordinator","type":"address","indexed":false,"internalType":"address"}],"anonymous":false},{"type":"event","name":"OwnershipTransferRequested","inputs":[{"name":"from","type":"address","indexed":true,"internalType":"address"},{"name":"to","type":"address","indexed":true,"internalType":"address"}],"anonymous":false},{"type":"event","name":"OwnershipTransferred","inputs":[{"name":"from","type":"address","indexed":true,"internalType":"address"},{"name":"to","type":"address","indexed":true,"internalType":"address"}],"anonymous":false},{"type":"event","name":"RequestFullfilled","inputs":[{"name":"requestId","type":"uint256","indexed":false,"internalType":"uint256"},{"name":"randomWords","type":"uint256[]","indexed":false,"internalType":"uint256[]"}],"anonymous":false},{"type":"event","name":"RequestSubmitted","inputs":[{"name":"requestId","type":"uint256","indexed":false,"internalType":"uint256"},{"name":"numWords","type":"uint256","indexed":false,"internalType":"uint256"}],"anonymous":false},{"type":"error","name":"OnlyCoordinatorCanFulfill","inputs":[{"name":"have","type":"address","internalType":"address"},{"name":"want","type":"address","internalType":"address"}]},{"type":"error","name":"OnlyOwnerOrCoordinator","inputs":[{"name":"have","type":"address","internalType":"address"},{"name":"owner","type":"address","internalType":"address"},{"name":"coordinator","type":"address","internalType":"address"}]},{"type":"error","name":"ZeroAddress","inputs":[]}],"bytecode":{"object":"0x6080604052600680546001600160501b03191666050003000f424017905534801561002957600080fd5b50604051610db4380380610db4833981016040819052610048916101de565b81338060008161009f5760405162461bcd60e51b815260206004820152601860248201527f43616e6e6f7420736574206f776e657220746f207a65726f000000000000000060448201526064015b60405180910390fd5b600080546001600160a01b0319166001600160a01b03848116919091179091558116156100cf576100cf81610135565b5050506001600160a01b0381166100f95760405163d92e233d60e01b815260040160405180910390fd5b600280546001600160a01b03199081166001600160a01b0393841617909155600494909455600591909155600380549093169116179055610224565b336001600160a01b0382160361018d5760405162461bcd60e51b815260206004820152601760248201527f43616e6e6f74207472616e7366657220746f2073656c660000000000000000006044820152606401610096565b600180546001600160a01b0319166001600160a01b0383811691821790925560008054604051929316917fed8889f560326eb138920d842192f0eb3dd22b4f139c87a2c57538e05bae12789190a350565b6000806000606084860312156101f357600080fd5b835160208501519093506001600160a01b038116811461021257600080fd5b80925050604084015190509250925092565b610b81806102336000396000f3fe608060405234801561001057600080fd5b506004361061009e5760003560e01c80638ea98117116100665780638ea981171461014e5780639eccacf614610161578063e0c8628914610174578063f2fde38b1461017c578063fc2a88c31461018f57600080fd5b80631503351b146100a35780631fe543e3146100eb57806379ba5097146101005780638796ba8c146101085780638da5cb5b14610129575b600080fd5b6100cf6100b13660046108c0565b60096020526000908152604090205460ff8082169161010090041682565b6040805192151583529015156020830152015b60405180910390f35b6100fe6100f93660046108ef565b610198565b005b6100fe6101eb565b61011b6101163660046108c0565b610295565b6040519081526020016100e2565b6000546001600160a01b03165b6040516001600160a01b0390911681526020016100e2565b6100fe61015c3660046109b9565b6102b6565b600254610136906001600160a01b031681565b61011b6103a8565b6100fe61018a3660046109b9565b61059d565b61011b60085481565b6002546001600160a01b031633146101dd5760025460405163073e64fd60e21b81523360048201526001600160a01b0390911660248201526044015b60405180910390fd5b6101e782826105b1565b5050565b6001546001600160a01b0316331461023e5760405162461bcd60e51b815260206004820152601660248201527526bab9ba10313290383937b837b9b2b21037bbb732b960511b60448201526064016101d4565b60008054336001600160a01b0319808316821784556001805490911690556040516001600160a01b0390921692909183917f8be0079c531659141344cd1fd0a4f28419497f9722a3daafe3b4186f6b6457e091a350565b600781815481106102a557600080fd5b600091825260209091200154905081565b6000546001600160a01b031633148015906102dc57506002546001600160a01b03163314155b1561032d57336102f46000546001600160a01b031690565b60025460405163061db9c160e01b81526001600160a01b03938416600482015291831660248301529190911660448201526064016101d4565b6001600160a01b0381166103545760405163d92e233d60e01b815260040160405180910390fd5b600280546001600160a01b0319166001600160a01b0383169081179091556040519081527fd1a6a14209a385a964d036e404cb5cfb71f4000cdb03c9366292430787261be69060200160405180910390a150565b60006103b26106f1565b6003546040805160c081018252600554815260045460208083019190915260065461ffff6401000000008204168385015263ffffffff8082166060850152600160301b9091041660808301528251908101909252600082526001600160a01b0390921691639b1c385e9160a082019061042a90610746565b8152506040518263ffffffff1660e01b815260040161044991906109e9565b6020604051808303816000875af1158015610468573d6000803e3d6000fd5b505050506040513d601f19601f8201168201806040525081019061048c9190610a85565b6040805160608101825260008152600160208201528151600580825260c082018452939450909291830191816020016020820280368337019050509052600082815260096020908152604091829020835181548584015115156101000261ff00199215159290921661ffff19909116171781559183015180516105159260018501920190610860565b5050600780546001810182556000919091527fa66cc928b5edb82af9bd49922954155ab7b0942694bea4ce44661d9a8736c6880182905550600881905560065460408051838152600160301b90920463ffffffff1660208301527f4fd87cd3f40adbb31ce317f9ca8d51af3ee70ac6bb148d7aa606ed8eba771133910160405180910390a190565b6105a56106f1565b6105ae816107b7565b50565b600082815260096020526040902054610100900460ff166106085760405162461bcd60e51b81526020600482015260116024820152701c995c5d595cdd081b9bdd08199bdd5b99607a1b60448201526064016101d4565b60005b600654600160301b900463ffffffff1660ff82161015610681576014828260ff168151811061063c5761063c610a9e565b602002602001015161064e9190610ab4565b610659906001610ad6565b828260ff168151811061066e5761066e610a9e565b602090810291909101015260010161060b565b506000828152600960209081526040909120805460ff19166001908117825583516106b3939290910191840190610860565b507f101e9369ba3134fda0b87a5e930145d58414fe85d4f1c1bee5657cc6f171088882826040516106e5929190610afd565b60405180910390a15050565b6000546001600160a01b031633146107445760405162461bcd60e51b815260206004820152601660248201527527b7363c9031b0b63630b1363290313c9037bbb732b960511b60448201526064016101d4565b565b60607f92fd13387c7fe7befbc38d303d6468778fb9731bc4583f17d92989c6fcfdeaaa8260405160240161077f91511515815260200190565b60408051601f198184030181529190526020810180516001600160e01b03166001600160e01b03199093169290921790915292915050565b336001600160a01b0382160361080f5760405162461bcd60e51b815260206004820152601760248201527f43616e6e6f74207472616e7366657220746f2073656c6600000000000000000060448201526064016101d4565b600180546001600160a01b0319166001600160a01b0383811691821790925560008054604051929316917fed8889f560326eb138920d842192f0eb3dd22b4f139c87a2c57538e05bae12789190a350565b82805482825590600052602060002090810192821561089b579160200282015b8281111561089b578251825591602001919060010190610880565b506108a79291506108ab565b5090565b5b808211156108a757600081556001016108ac565b6000602082840312156108d257600080fd5b5035919050565b634e487b7160e01b600052604160045260246000fd5b6000806040838503121561090257600080fd5b8235915060208084013567ffffffffffffffff8082111561092257600080fd5b818601915086601f83011261093657600080fd5b813581811115610948576109486108d9565b8060051b604051601f19603f8301168101818110858211171561096d5761096d6108d9565b60405291825284820192508381018501918983111561098b57600080fd5b938501935b828510156109a957843584529385019392850192610990565b8096505050505050509250929050565b6000602082840312156109cb57600080fd5b81356001600160a01b03811681146109e257600080fd5b9392505050565b6000602080835283518184015280840151604084015261ffff6040850151166060840152606084015163ffffffff80821660808601528060808701511660a0860152505060a084015160c08085015280518060e086015260005b81811015610a605782810184015186820161010001528301610a43565b506101009250600083828701015282601f19601f830116860101935050505092915050565b600060208284031215610a9757600080fd5b5051919050565b634e487b7160e01b600052603260045260246000fd5b600082610ad157634e487b7160e01b600052601260045260246000fd5b500690565b80820180821115610af757634e487b7160e01b600052601160045260246000fd5b92915050565b6000604082018483526020604081850152818551808452606086019150828701935060005b81811015610b3e57845183529383019391830191600101610b22565b509097965050505050505056fea2646970667358221220e537a1025eb29e722410cc390eac94b170d58295444a231726fa0f42526ff82464736f6c63430008140033","linkReferences":{}},"methodIdentifiers":{"acceptOwnership()":"79ba5097","lastRequestId()":"fc2a88c3","owner()":"8da5cb5b","rawFulfillRandomWords(uint256,uint256[])":"1fe543e3","requestIds(uint256)":"8796ba8c","requestRandomWords()":"e0c86289","s_request(uint256)":"1503351b","s_vrfCoordinator()":"9eccacf6","setCoordinator(address)":"8ea98117","transferOwnership(address)":"f2fde38b"},"id":47}