{"abi":[{"type":"constructor","inputs":[{"name":"_subscriptionId","type":"uint256","internalType":"uint256"},{"name":"_coordinatorAddress","type":"address","internalType":"address"},{"name":"_keyHash","type":"bytes32","internalType":"bytes32"}],"stateMutability":"nonpayable"},{"type":"function","name":"acceptOwnership","inputs":[],"outputs":[],"stateMutability":"nonpayable"},{"type":"function","name":"lastRequestId","inputs":[],"outputs":[{"name":"","type":"uint256","internalType":"uint256"}],"stateMutability":"view"},{"type":"function","name":"owner","inputs":[],"outputs":[{"name":"","type":"address","internalType":"address"}],"stateMutability":"view"},{"type":"function","name":"rawFulfillRandomWords","inputs":[{"name":"requestId","type":"uint256","internalType":"uint256"},{"name":"randomWords","type":"uint256[]","internalType":"uint256[]"}],"outputs":[],"stateMutability":"nonpayable"},{"type":"function","name":"requestIds","inputs":[{"name":"","type":"uint256","internalType":"uint256"}],"outputs":[{"name":"","type":"uint256","internalType":"uint256"}],"stateMutability":"view"},{"type":"function","name":"requestRandomWords","inputs":[],"outputs":[{"name":"requestId","type":"uint256","internalType":"uint256"}],"stateMutability":"nonpayable"},{"type":"function","name":"s_request","inputs":[{"name":"requestId","type":"uint256","internalType":"uint256"}],"outputs":[{"name":"fulfilled","type":"bool","internalType":"bool"},{"name":"exists","type":"bool","internalType":"bool"}],"stateMutability":"view"},{"type":"function","name":"s_vrfCoordinator","inputs":[],"outputs":[{"name":"","type":"address","internalType":"contract IVRFCoordinatorV2Plus"}],"stateMutability":"view"},{"type":"function","name":"setCoordinator","inputs":[{"name":"_vrfCoordinator","type":"address","internalType":"address"}],"outputs":[],"stateMutability":"nonpayable"},{"type":"function","name":"transferOwnership","inputs":[{"name":"to","type":"address","internalType":"address"}],"outputs":[],"stateMutability":"nonpayable"},{"type":"event","name":"CoordinatorSet","inputs":[{"name":"vrfCoordinator","type":"address","indexed":false,"internalType":"address"}],"anonymous":false},{"type":"event","name":"OwnershipTransferRequested","inputs":[{"name":"from","type":"address","indexed":true,"internalType":"address"},{"name":"to","type":"address","indexed":true,"internalType":"address"}],"anonymous":false},{"type":"event","name":"OwnershipTransferred","inputs":[{"name":"from","type":"address","indexed":true,"internalType":"address"},{"name":"to","type":"address","indexed":true,"internalType":"address"}],"anonymous":false},{"type":"event","name":"RequestFullfilled","inputs":[{"name":"requestId","type":"uint256","indexed":false,"internalType":"uint256"},{"name":"randomWords","type":"uint256[]","indexed":false,"internalType":"uint256[]"}],"anonymous":false},{"type":"event","name":"RequestSubmitted","inputs":[{"name":"requestId","type":"uint256","indexed":false,"internalType":"uint256"},{"name":"numWords","type":"uint256","indexed":false,"internalType":"uint256"}],"anonymous":false},{"type":"error","name":"OnlyCoordinatorCanFulfill","inputs":[{"name":"have","type":"address","internalType":"address"},{"name":"want","type":"address","internalType":"address"}]},{"type":"error","name":"OnlyOwnerOrCoordinator","inputs":[{"name":"have","type":"address","internalType":"address"},{"name":"owner","type":"address","internalType":"address"},{"name":"coordinator","type":"address","internalType":"address"}]},{"type":"error","name":"ZeroAddress","inputs":[]}],"bytecode":{"object":"0x6080604052600580546001600160501b03191666050003000f424017905534801561002957600080fd5b50604051610dcd380380610dcd833981016040819052610048916101f5565b81338060008161009f5760405162461bcd60e51b815260206004820152601860248201527f43616e6e6f7420736574206f776e657220746f207a65726f000000000000000060448201526064015b60405180910390fd5b600080546001600160a01b0319166001600160a01b03848116919091179091558116156100cf576100cf8161014c565b5050506001600160a01b0381166100f95760405163d92e233d60e01b815260040160405180910390fd5b600280546001600160a01b039283166001600160a01b031990911617905560039390935560045560058054919092166a010000000000000000000002600160501b600160f01b031990911617905561023b565b336001600160a01b038216036101a45760405162461bcd60e51b815260206004820152601760248201527f43616e6e6f74207472616e7366657220746f2073656c660000000000000000006044820152606401610096565b600180546001600160a01b0319166001600160a01b0383811691821790925560008054604051929316917fed8889f560326eb138920d842192f0eb3dd22b4f139c87a2c57538e05bae12789190a350565b60008060006060848603121561020a57600080fd5b835160208501519093506001600160a01b038116811461022957600080fd5b80925050604084015190509250925092565b610b838061024a6000396000f3fe608060405234801561001057600080fd5b506004361061009e5760003560e01c80638ea98117116100665780638ea981171461014e5780639eccacf614610161578063e0c8628914610174578063f2fde38b1461017c578063fc2a88c31461018f57600080fd5b80631503351b146100a35780631fe543e3146100eb57806379ba5097146101005780638796ba8c146101085780638da5cb5b14610129575b600080fd5b6100cf6100b13660046108c2565b60086020526000908152604090205460ff8082169161010090041682565b6040805192151583529015156020830152015b60405180910390f35b6100fe6100f93660046108f1565b610198565b005b6100fe6101eb565b61011b6101163660046108c2565b610295565b6040519081526020016100e2565b6000546001600160a01b03165b6040516001600160a01b0390911681526020016100e2565b6100fe61015c3660046109bb565b6102b6565b600254610136906001600160a01b031681565b61011b6103a8565b6100fe61018a3660046109bb565b61059f565b61011b60075481565b6002546001600160a01b031633146101dd5760025460405163073e64fd60e21b81523360048201526001600160a01b0390911660248201526044015b60405180910390fd5b6101e782826105b3565b5050565b6001546001600160a01b0316331461023e5760405162461bcd60e51b815260206004820152601660248201527526bab9ba10313290383937b837b9b2b21037bbb732b960511b60448201526064016101d4565b60008054336001600160a01b0319808316821784556001805490911690556040516001600160a01b0390921692909183917f8be0079c531659141344cd1fd0a4f28419497f9722a3daafe3b4186f6b6457e091a350565b600681815481106102a557600080fd5b600091825260209091200154905081565b6000546001600160a01b031633148015906102dc57506002546001600160a01b03163314155b1561032d57336102f46000546001600160a01b031690565b60025460405163061db9c160e01b81526001600160a01b03938416600482015291831660248301529190911660448201526064016101d4565b6001600160a01b0381166103545760405163d92e233d60e01b815260040160405180910390fd5b600280546001600160a01b0319166001600160a01b0383169081179091556040519081527fd1a6a14209a385a964d036e404cb5cfb71f4000cdb03c9366292430787261be69060200160405180910390a150565b60006103b26106f3565b6005546040805160c0810182526004548152600354602080830191909152640100000000840461ffff168284015263ffffffff8085166060840152600160301b8504166080830152825190810190925260008252600160501b9092046001600160a01b031691639b1c385e9160a082019061042c90610748565b8152506040518263ffffffff1660e01b815260040161044b91906109eb565b6020604051808303816000875af115801561046a573d6000803e3d6000fd5b505050506040513d601f19601f8201168201806040525081019061048e9190610a87565b6040805160608101825260008152600160208201528151600580825260c082018452939450909291830191816020016020820280368337019050509052600082815260086020908152604091829020835181548584015115156101000261ff00199215159290921661ffff19909116171781559183015180516105179260018501920190610862565b5050600680546001810182556000919091527ff652222313e28459528d920b65115c16c04f3efc82aaedc97be59f3f377c0d3f0182905550600781905560055460408051838152600160301b90920463ffffffff1660208301527f4fd87cd3f40adbb31ce317f9ca8d51af3ee70ac6bb148d7aa606ed8eba771133910160405180910390a190565b6105a76106f3565b6105b0816107b9565b50565b600082815260086020526040902054610100900460ff1661060a5760405162461bcd60e51b81526020600482015260116024820152701c995c5d595cdd081b9bdd08199bdd5b99607a1b60448201526064016101d4565b60005b600554600160301b900463ffffffff1660ff82161015610683576014828260ff168151811061063e5761063e610aa0565b60200260200101516106509190610ab6565b61065b906001610ad8565b828260ff168151811061067057610670610aa0565b602090810291909101015260010161060d565b506000828152600860209081526040909120805460ff19166001908117825583516106b5939290910191840190610862565b507f101e9369ba3134fda0b87a5e930145d58414fe85d4f1c1bee5657cc6f171088882826040516106e7929190610aff565b60405180910390a15050565b6000546001600160a01b031633146107465760405162461bcd60e51b815260206004820152601660248201527527b7363c9031b0b63630b1363290313c9037bbb732b960511b60448201526064016101d4565b565b60607f92fd13387c7fe7befbc38d303d6468778fb9731bc4583f17d92989c6fcfdeaaa8260405160240161078191511515815260200190565b60408051601f198184030181529190526020810180516001600160e01b03166001600160e01b03199093169290921790915292915050565b336001600160a01b038216036108115760405162461bcd60e51b815260206004820152601760248201527f43616e6e6f74207472616e7366657220746f2073656c6600000000000000000060448201526064016101d4565b600180546001600160a01b0319166001600160a01b0383811691821790925560008054604051929316917fed8889f560326eb138920d842192f0eb3dd22b4f139c87a2c57538e05bae12789190a350565b82805482825590600052602060002090810192821561089d579160200282015b8281111561089d578251825591602001919060010190610882565b506108a99291506108ad565b5090565b5b808211156108a957600081556001016108ae565b6000602082840312156108d457600080fd5b5035919050565b634e487b7160e01b600052604160045260246000fd5b6000806040838503121561090457600080fd5b8235915060208084013567ffffffffffffffff8082111561092457600080fd5b818601915086601f83011261093857600080fd5b81358181111561094a5761094a6108db565b8060051b604051601f19603f8301168101818110858211171561096f5761096f6108db565b60405291825284820192508381018501918983111561098d57600080fd5b938501935b828510156109ab57843584529385019392850192610992565b8096505050505050509250929050565b6000602082840312156109cd57600080fd5b81356001600160a01b03811681146109e457600080fd5b9392505050565b6000602080835283518184015280840151604084015261ffff6040850151166060840152606084015163ffffffff80821660808601528060808701511660a0860152505060a084015160c08085015280518060e086015260005b81811015610a625782810184015186820161010001528301610a45565b506101009250600083828701015282601f19601f830116860101935050505092915050565b600060208284031215610a9957600080fd5b5051919050565b634e487b7160e01b600052603260045260246000fd5b600082610ad357634e487b7160e01b600052601260045260246000fd5b500690565b80820180821115610af957634e487b7160e01b600052601160045260246000fd5b92915050565b6000604082018483526020604081850152818551808452606086019150828701935060005b81811015610b4057845183529383019391830191600101610b24565b509097965050505050505056fea2646970667358221220a500df0507b265ffb896e006ce653bcc1486a54c4f53fb65a996e602309e309164736f6c63430008140033","linkReferences":{}},"methodIdentifiers":{"acceptOwnership()":"79ba5097","lastRequestId()":"fc2a88c3","owner()":"8da5cb5b","rawFulfillRandomWords(uint256,uint256[])":"1fe543e3","requestIds(uint256)":"8796ba8c","requestRandomWords()":"e0c86289","s_request(uint256)":"1503351b","s_vrfCoordinator()":"9eccacf6","setCoordinator(address)":"8ea98117","transferOwnership(address)":"f2fde38b"},"id":50}