{"abi":[{"type":"constructor","inputs":[],"stateMutability":"nonpayable"},{"type":"function","name":"approve","inputs":[{"name":"to","type":"address","internalType":"address"},{"name":"tokenId","type":"uint256","internalType":"uint256"}],"outputs":[],"stateMutability":"nonpayable"},{"type":"function","name":"balanceOf","inputs":[{"name":"owner","type":"address","internalType":"address"}],"outputs":[{"name":"","type":"uint256","internalType":"uint256"}],"stateMutability":"view"},{"type":"function","name":"burn","inputs":[{"name":"_tokenId","type":"uint256","internalType":"uint256"}],"outputs":[],"stateMutability":"nonpayable"},{"type":"function","name":"getApproved","inputs":[{"name":"tokenId","type":"uint256","internalType":"uint256"}],"outputs":[{"name":"","type":"address","internalType":"address"}],"stateMutability":"view"},{"type":"function","name":"isApprovedForAll","inputs":[{"name":"owner","type":"address","internalType":"address"},{"name":"operator","type":"address","internalType":"address"}],"outputs":[{"name":"","type":"bool","internalType":"bool"}],"stateMutability":"view"},{"type":"function","name":"name","inputs":[],"outputs":[{"name":"","type":"string","internalType":"string"}],"stateMutability":"view"},{"type":"function","name":"owner","inputs":[],"outputs":[{"name":"","type":"address","internalType":"address"}],"stateMutability":"view"},{"type":"function","name":"ownerOf","inputs":[{"name":"tokenId","type":"uint256","internalType":"uint256"}],"outputs":[{"name":"","type":"address","internalType":"address"}],"stateMutability":"view"},{"type":"function","name":"renounceOwnership","inputs":[],"outputs":[],"stateMutability":"nonpayable"},{"type":"function","name":"safeMint","inputs":[],"outputs":[],"stateMutability":"payable"},{"type":"function","name":"safeTransferFrom","inputs":[{"name":"from","type":"address","internalType":"address"},{"name":"to","type":"address","internalType":"address"},{"name":"tokenId","type":"uint256","internalType":"uint256"}],"outputs":[],"stateMutability":"nonpayable"},{"type":"function","name":"safeTransferFrom","inputs":[{"name":"from","type":"address","internalType":"address"},{"name":"to","type":"address","internalType":"address"},{"name":"tokenId","type":"uint256","internalType":"uint256"},{"name":"data","type":"bytes","internalType":"bytes"}],"outputs":[],"stateMutability":"nonpayable"},{"type":"function","name":"setApprovalForAll","inputs":[{"name":"operator","type":"address","internalType":"address"},{"name":"approved","type":"bool","internalType":"bool"}],"outputs":[],"stateMutability":"nonpayable"},{"type":"function","name":"setBaseURI","inputs":[{"name":"_baseTokenURI","type":"string","internalType":"string"}],"outputs":[],"stateMutability":"nonpayable"},{"type":"function","name":"setTokenUri","inputs":[{"name":"_tokenId","type":"uint256","internalType":"uint256"},{"name":"_tokenURI","type":"string","internalType":"string"}],"outputs":[],"stateMutability":"nonpayable"},{"type":"function","name":"supportsInterface","inputs":[{"name":"_interfaceId","type":"bytes4","internalType":"bytes4"}],"outputs":[{"name":"","type":"bool","internalType":"bool"}],"stateMutability":"view"},{"type":"function","name":"symbol","inputs":[],"outputs":[{"name":"","type":"string","internalType":"string"}],"stateMutability":"view"},{"type":"function","name":"tokenURI","inputs":[{"name":"_tokenId","type":"uint256","internalType":"uint256"}],"outputs":[{"name":"","type":"string","internalType":"string"}],"stateMutability":"view"},{"type":"function","name":"transferFrom","inputs":[{"name":"from","type":"address","internalType":"address"},{"name":"to","type":"address","internalType":"address"},{"name":"tokenId","type":"uint256","internalType":"uint256"}],"outputs":[],"stateMutability":"nonpayable"},{"type":"function","name":"transferOwnership","inputs":[{"name":"newOwner","type":"address","internalType":"address"}],"outputs":[],"stateMutability":"nonpayable"},{"type":"function","name":"withdraw","inputs":[],"outputs":[],"stateMutability":"nonpayable"},{"type":"event","name":"Approval","inputs":[{"name":"owner","type":"address","indexed":true,"internalType":"address"},{"name":"approved","type":"address","indexed":true,"internalType":"address"},{"name":"tokenId","type":"uint256","indexed":true,"internalType":"uint256"}],"anonymous":false},{"type":"event","name":"ApprovalForAll","inputs":[{"name":"owner","type":"address","indexed":true,"internalType":"address"},{"name":"operator","type":"address","indexed":true,"internalType":"address"},{"name":"approved","type":"bool","indexed":false,"internalType":"bool"}],"anonymous":false},{"type":"event","name":"BatchMetadataUpdate","inputs":[{"name":"_fromTokenId","type":"uint256","indexed":false,"internalType":"uint256"},{"name":"_toTokenId","type":"uint256","indexed":false,"internalType":"uint256"}],"anonymous":false},{"type":"event","name":"MetadataUpdate","inputs":[{"name":"_tokenId","type":"uint256","indexed":false,"internalType":"uint256"}],"anonymous":false},{"type":"event","name":"OwnershipTransferred","inputs":[{"name":"previousOwner","type":"address","indexed":true,"internalType":"address"},{"name":"newOwner","type":"address","indexed":true,"internalType":"address"}],"anonymous":false},{"type":"event","name":"Transfer","inputs":[{"name":"from","type":"address","indexed":true,"internalType":"address"},{"name":"to","type":"address","indexed":true,"internalType":"address"},{"name":"tokenId","type":"uint256","indexed":true,"internalType":"uint256"}],"anonymous":false},{"type":"error","name":"AMOUNT_SENT_INSUFFICIENT","inputs":[]},{"type":"error","name":"ERC721IncorrectOwner","inputs":[{"name":"sender","type":"address","internalType":"address"},{"name":"tokenId","type":"uint256","internalType":"uint256"},{"name":"owner","type":"address","internalType":"address"}]},{"type":"error","name":"ERC721InsufficientApproval","inputs":[{"name":"operator","type":"address","internalType":"address"},{"name":"tokenId","type":"uint256","internalType":"uint256"}]},{"type":"error","name":"ERC721InvalidApprover","inputs":[{"name":"approver","type":"address","internalType":"address"}]},{"type":"error","name":"ERC721InvalidOperator","inputs":[{"name":"operator","type":"address","internalType":"address"}]},{"type":"error","name":"ERC721InvalidOwner","inputs":[{"name":"owner","type":"address","internalType":"address"}]},{"type":"error","name":"ERC721InvalidReceiver","inputs":[{"name":"receiver","type":"address","internalType":"address"}]},{"type":"error","name":"ERC721InvalidSender","inputs":[{"name":"sender","type":"address","internalType":"address"}]},{"type":"error","name":"ERC721NonexistentToken","inputs":[{"name":"tokenId","type":"uint256","internalType":"uint256"}]},{"type":"error","name":"MAX_AMOUNT_OF_COSMIES_MINTED","inputs":[]},{"type":"error","name":"OwnableInvalidOwner","inputs":[{"name":"owner","type":"address","internalType":"address"}]},{"type":"error","name":"OwnableUnauthorizedAccount","inputs":[{"name":"account","type":"address","internalType":"address"}]}],"bytecode":{"object":"0x60806040523480156200001157600080fd5b503360405180604001604052806007815260200166434f534d49455360c81b8152506040518060400160405280600481526020016343534d4560e01b8152508160009081620000619190620001ab565b506001620000708282620001ab565b5050506001600160a01b038116620000a257604051631e4fbdf760e01b81526000600482015260240160405180910390fd5b620000ad81620000b4565b5062000277565b600780546001600160a01b038381166001600160a01b0319831681179093556040519116919082907f8be0079c531659141344cd1fd0a4f28419497f9722a3daafe3b4186f6b6457e090600090a35050565b634e487b7160e01b600052604160045260246000fd5b600181811c908216806200013157607f821691505b6020821081036200015257634e487b7160e01b600052602260045260246000fd5b50919050565b601f821115620001a657600081815260208120601f850160051c81016020861015620001815750805b601f850160051c820191505b81811015620001a2578281556001016200018d565b5050505b505050565b81516001600160401b03811115620001c757620001c762000106565b620001df81620001d884546200011c565b8462000158565b602080601f831160018114620002175760008415620001fe5750858301515b600019600386901b1c1916600185901b178555620001a2565b600085815260208120601f198616915b82811015620002485788860151825594840194600190910190840162000227565b5085821015620002675787850151600019600388901b60f8161c191681555b5050505050600190811b01905550565b6116f080620002876000396000f3fe60806040526004361061012a5760003560e01c80636352211e116100ab57806395d89b411161006f57806395d89b411461031e578063a22cb46514610333578063b88d4fde14610353578063c87b56dd14610373578063e985e9c514610393578063f2fde38b146103b357600080fd5b80636352211e146102955780636871ee40146102b557806370a08231146102bd578063715018a6146102eb5780638da5cb5b1461030057600080fd5b80633ccfd60b116100f25780633ccfd60b1461020057806342842e0e1461021557806342966c681461023557806355f804b31461025557806357f7789e1461027557600080fd5b806301ffc9a71461012f57806306fdde0314610164578063081812fc14610186578063095ea7b3146101be57806323b872dd146101e0575b600080fd5b34801561013b57600080fd5b5061014f61014a366004611179565b6103d3565b60405190151581526020015b60405180910390f35b34801561017057600080fd5b506101796103e4565b60405161015b91906111e6565b34801561019257600080fd5b506101a66101a13660046111f9565b610476565b6040516001600160a01b03909116815260200161015b565b3480156101ca57600080fd5b506101de6101d936600461122e565b61049f565b005b3480156101ec57600080fd5b506101de6101fb366004611258565b6104ae565b34801561020c57600080fd5b506101de610543565b34801561022157600080fd5b506101de610230366004611258565b6105ec565b34801561024157600080fd5b506101de6102503660046111f9565b610607565b34801561026157600080fd5b506101de610270366004611340565b610627565b34801561028157600080fd5b506101de610290366004611375565b61063b565b3480156102a157600080fd5b506101a66102b03660046111f9565b61064d565b6101de610658565b3480156102c957600080fd5b506102dd6102d83660046113bc565b6106ce565b60405190815260200161015b565b3480156102f757600080fd5b506101de610716565b34801561030c57600080fd5b506007546001600160a01b03166101a6565b34801561032a57600080fd5b5061017961072a565b34801561033f57600080fd5b506101de61034e3660046113d7565b610739565b34801561035f57600080fd5b506101de61036e366004611413565b610744565b34801561037f57600080fd5b5061017961038e3660046111f9565b61075b565b34801561039f57600080fd5b5061014f6103ae36600461148f565b610766565b3480156103bf57600080fd5b506101de6103ce3660046113bc565b610794565b60006103de826107cf565b92915050565b6060600080546103f3906114c2565b80601f016020809104026020016040519081016040528092919081815260200182805461041f906114c2565b801561046c5780601f106104415761010080835404028352916020019161046c565b820191906000526020600020905b81548152906001019060200180831161044f57829003601f168201915b5050505050905090565b6000610481826107f4565b506000828152600460205260409020546001600160a01b03166103de565b6104aa82823361082d565b5050565b6001600160a01b0382166104dd57604051633250574960e11b8152600060048201526024015b60405180910390fd5b60006104ef83833361083a565b61083a565b9050836001600160a01b0316816001600160a01b03161461053d576040516364283d7b60e01b81526001600160a01b03808616600483015260248201849052821660448201526064016104d4565b50505050565b61054b610933565b60405147903390600090829084908381818185875af1925050503d8060008114610591576040519150601f19603f3d011682016040523d82523d6000602084013e610596565b606091505b50509050806105e75760405162461bcd60e51b815260206004820152601860248201527f4661696c656420746f207769746864726177206574686572000000000000000060448201526064016104d4565b505050565b6105e783838360405180602001604052806000815250610744565b61060f610933565b6104aa6000826104ea6007546001600160a01b031690565b61062f610933565b60096104aa828261154a565b610643610933565b6104aa8282610960565b60006103de826107f4565b66b1a2bc2ec5000034101561068057604051634a925a7f60e01b815260040160405180910390fd5b600a61068b336106ce565b11156106aa576040516344fe6f1b60e11b815260040160405180910390fd5b60088054600091826106bb8361160a565b9190505590506106cb33826109b0565b50565b60006001600160a01b0382166106fa576040516322718ad960e21b8152600060048201526024016104d4565b506001600160a01b031660009081526003602052604090205490565b61071e610933565b61072860006109ca565b565b6060600180546103f3906114c2565b6104aa338383610a1c565b61074f8484846104ae565b61053d84848484610abb565b60606103de82610be4565b6001600160a01b03918216600090815260056020908152604080832093909416825291909152205460ff1690565b61079c610933565b6001600160a01b0381166107c657604051631e4fbdf760e01b8152600060048201526024016104d4565b6106cb816109ca565b60006001600160e01b03198216632483248360e11b14806103de57506103de82610ce8565b6000818152600260205260408120546001600160a01b0316806103de57604051637e27328960e01b8152600481018490526024016104d4565b6105e78383836001610d38565b6000828152600260205260408120546001600160a01b039081169083161561086757610867818486610e3e565b6001600160a01b038116156108a557610884600085600080610d38565b6001600160a01b038116600090815260036020526040902080546000190190555b6001600160a01b038516156108d4576001600160a01b0385166000908152600360205260409020805460010190555b60008481526002602052604080822080546001600160a01b0319166001600160a01b0389811691821790925591518793918516917fddf252ad1be2c89b69c2b068fc378daa952ba7f163c4a11628f55a4df523b3ef91a4949350505050565b6007546001600160a01b031633146107285760405163118cdaa760e01b81523360048201526024016104d4565b6000828152600660205260409020610978828261154a565b506040518281527ff8e1a15aba9398e019f0b49df1a4fde98ee17ae345cb5f6b5e2c27f5033e8ce79060200160405180910390a15050565b6104aa828260405180602001604052806000815250610ea2565b600780546001600160a01b038381166001600160a01b0319831681179093556040519116919082907f8be0079c531659141344cd1fd0a4f28419497f9722a3daafe3b4186f6b6457e090600090a35050565b6001600160a01b038216610a4e57604051630b61174360e31b81526001600160a01b03831660048201526024016104d4565b6001600160a01b03838116600081815260056020908152604080832094871680845294825291829020805460ff191686151590811790915591519182527f17307eab39ab6107e8899845ad3d59bd9653f200f220920489ca2b5937696c31910160405180910390a3505050565b6001600160a01b0383163b1561053d57604051630a85bd0160e11b81526001600160a01b0384169063150b7a0290610afd903390889087908790600401611631565b6020604051808303816000875af1925050508015610b38575060408051601f3d908101601f19168201909252610b359181019061166e565b60015b610ba1573d808015610b66576040519150601f19603f3d011682016040523d82523d6000602084013e610b6b565b606091505b508051600003610b9957604051633250574960e11b81526001600160a01b03851660048201526024016104d4565b805181602001fd5b6001600160e01b03198116630a85bd0160e11b14610bdd57604051633250574960e11b81526001600160a01b03851660048201526024016104d4565b5050505050565b6060610bef826107f4565b5060008281526006602052604081208054610c09906114c2565b80601f0160208091040260200160405190810160405280929190818152602001828054610c35906114c2565b8015610c825780601f10610c5757610100808354040283529160200191610c82565b820191906000526020600020905b815481529060010190602001808311610c6557829003601f168201915b505050505090506000610c93610eb9565b90508051600003610ca5575092915050565b815115610cd7578082604051602001610cbf92919061168b565b60405160208183030381529060405292505050919050565b610ce084610ec8565b949350505050565b60006001600160e01b031982166380ac58cd60e01b1480610d1957506001600160e01b03198216635b5e139f60e01b145b806103de57506301ffc9a760e01b6001600160e01b03198316146103de565b8080610d4c57506001600160a01b03821615155b15610e0e576000610d5c846107f4565b90506001600160a01b03831615801590610d885750826001600160a01b0316816001600160a01b031614155b8015610d9b5750610d998184610766565b155b15610dc45760405163a9fbf51f60e01b81526001600160a01b03841660048201526024016104d4565b8115610e0c5783856001600160a01b0316826001600160a01b03167f8c5be1e5ebec7d5bd14f71427d1e84f3dd0314c0f7b2291e5b200ac8c7c3b92560405160405180910390a45b505b5050600090815260046020526040902080546001600160a01b0319166001600160a01b0392909216919091179055565b610e49838383610f30565b6105e7576001600160a01b038316610e7757604051637e27328960e01b8152600481018290526024016104d4565b60405163177e802f60e01b81526001600160a01b0383166004820152602481018290526044016104d4565b610eac8383610f93565b6105e76000848484610abb565b6060600980546103f3906114c2565b6060610ed3826107f4565b506000610ede610eb9565b90506000815111610efe5760405180602001604052806000815250610f29565b80610f0884610ff8565b604051602001610f1992919061168b565b6040516020818303038152906040525b9392505050565b60006001600160a01b03831615801590610ce05750826001600160a01b0316846001600160a01b03161480610f6a5750610f6a8484610766565b80610ce05750506000908152600460205260409020546001600160a01b03908116911614919050565b6001600160a01b038216610fbd57604051633250574960e11b8152600060048201526024016104d4565b6000610fcb8383600061083a565b90506001600160a01b038116156105e7576040516339e3563760e11b8152600060048201526024016104d4565b606060006110058361108b565b600101905060008167ffffffffffffffff81111561102557611025611294565b6040519080825280601f01601f19166020018201604052801561104f576020820181803683370190505b5090508181016020015b600019016f181899199a1a9b1b9c1cb0b131b232b360811b600a86061a8153600a850494508461105957509392505050565b60008072184f03e93ff9f4daa797ed6e38ed64bf6a1f0160401b83106110ca5772184f03e93ff9f4daa797ed6e38ed64bf6a1f0160401b830492506040015b6d04ee2d6d415b85acef810000000083106110f6576d04ee2d6d415b85acef8100000000830492506020015b662386f26fc10000831061111457662386f26fc10000830492506010015b6305f5e100831061112c576305f5e100830492506008015b612710831061114057612710830492506004015b60648310611152576064830492506002015b600a83106103de5760010192915050565b6001600160e01b0319811681146106cb57600080fd5b60006020828403121561118b57600080fd5b8135610f2981611163565b60005b838110156111b1578181015183820152602001611199565b50506000910152565b600081518084526111d2816020860160208601611196565b601f01601f19169290920160200192915050565b602081526000610f2960208301846111ba565b60006020828403121561120b57600080fd5b5035919050565b80356001600160a01b038116811461122957600080fd5b919050565b6000806040838503121561124157600080fd5b61124a83611212565b946020939093013593505050565b60008060006060848603121561126d57600080fd5b61127684611212565b925061128460208501611212565b9150604084013590509250925092565b634e487b7160e01b600052604160045260246000fd5b600067ffffffffffffffff808411156112c5576112c5611294565b604051601f8501601f19908116603f011681019082821181831017156112ed576112ed611294565b8160405280935085815286868601111561130657600080fd5b858560208301376000602087830101525050509392505050565b600082601f83011261133157600080fd5b610f29838335602085016112aa565b60006020828403121561135257600080fd5b813567ffffffffffffffff81111561136957600080fd5b610ce084828501611320565b6000806040838503121561138857600080fd5b82359150602083013567ffffffffffffffff8111156113a657600080fd5b6113b285828601611320565b9150509250929050565b6000602082840312156113ce57600080fd5b610f2982611212565b600080604083850312156113ea57600080fd5b6113f383611212565b91506020830135801515811461140857600080fd5b809150509250929050565b6000806000806080858703121561142957600080fd5b61143285611212565b935061144060208601611212565b925060408501359150606085013567ffffffffffffffff81111561146357600080fd5b8501601f8101871361147457600080fd5b611483878235602084016112aa565b91505092959194509250565b600080604083850312156114a257600080fd5b6114ab83611212565b91506114b960208401611212565b90509250929050565b600181811c908216806114d657607f821691505b6020821081036114f657634e487b7160e01b600052602260045260246000fd5b50919050565b601f8211156105e757600081815260208120601f850160051c810160208610156115235750805b601f850160051c820191505b818110156115425782815560010161152f565b505050505050565b815167ffffffffffffffff81111561156457611564611294565b6115788161157284546114c2565b846114fc565b602080601f8311600181146115ad57600084156115955750858301515b600019600386901b1c1916600185901b178555611542565b600085815260208120601f198616915b828110156115dc578886015182559484019460019091019084016115bd565b50858210156115fa5787850151600019600388901b60f8161c191681555b5050505050600190811b01905550565b60006001820161162a57634e487b7160e01b600052601160045260246000fd5b5060010190565b6001600160a01b0385811682528416602082015260408101839052608060608201819052600090611664908301846111ba565b9695505050505050565b60006020828403121561168057600080fd5b8151610f2981611163565b6000835161169d818460208801611196565b8351908301906116b1818360208801611196565b0194935050505056fea264697066735822122006c44e1ebb00e2c97489ec6f95bc79570b73b21cb98e4e8dc668ef56573ba2e364736f6c63430008140033","linkReferences":{}},"methodIdentifiers":{"approve(address,uint256)":"095ea7b3","balanceOf(address)":"70a08231","burn(uint256)":"42966c68","getApproved(uint256)":"081812fc","isApprovedForAll(address,address)":"e985e9c5","name()":"06fdde03","owner()":"8da5cb5b","ownerOf(uint256)":"6352211e","renounceOwnership()":"715018a6","safeMint()":"6871ee40","safeTransferFrom(address,address,uint256)":"42842e0e","safeTransferFrom(address,address,uint256,bytes)":"b88d4fde","setApprovalForAll(address,bool)":"a22cb465","setBaseURI(string)":"55f804b3","setTokenUri(uint256,string)":"57f7789e","supportsInterface(bytes4)":"01ffc9a7","symbol()":"95d89b41","tokenURI(uint256)":"c87b56dd","transferFrom(address,address,uint256)":"23b872dd","transferOwnership(address)":"f2fde38b","withdraw()":"3ccfd60b"},"id":45}