{"abi":[{"type":"constructor","inputs":[],"stateMutability":"nonpayable"},{"type":"function","name":"approve","inputs":[{"name":"to","type":"address","internalType":"address"},{"name":"tokenId","type":"uint256","internalType":"uint256"}],"outputs":[],"stateMutability":"nonpayable"},{"type":"function","name":"balanceOf","inputs":[{"name":"owner","type":"address","internalType":"address"}],"outputs":[{"name":"","type":"uint256","internalType":"uint256"}],"stateMutability":"view"},{"type":"function","name":"getApproved","inputs":[{"name":"tokenId","type":"uint256","internalType":"uint256"}],"outputs":[{"name":"","type":"address","internalType":"address"}],"stateMutability":"view"},{"type":"function","name":"isApprovedForAll","inputs":[{"name":"owner","type":"address","internalType":"address"},{"name":"operator","type":"address","internalType":"address"}],"outputs":[{"name":"","type":"bool","internalType":"bool"}],"stateMutability":"view"},{"type":"function","name":"name","inputs":[],"outputs":[{"name":"","type":"string","internalType":"string"}],"stateMutability":"view"},{"type":"function","name":"owner","inputs":[],"outputs":[{"name":"","type":"address","internalType":"address"}],"stateMutability":"view"},{"type":"function","name":"ownerOf","inputs":[{"name":"tokenId","type":"uint256","internalType":"uint256"}],"outputs":[{"name":"","type":"address","internalType":"address"}],"stateMutability":"view"},{"type":"function","name":"renounceOwnership","inputs":[],"outputs":[],"stateMutability":"nonpayable"},{"type":"function","name":"safeMint","inputs":[{"name":"_to","type":"address","internalType":"address"},{"name":"_tokenURI","type":"string","internalType":"string"}],"outputs":[],"stateMutability":"payable"},{"type":"function","name":"safeTransferFrom","inputs":[{"name":"from","type":"address","internalType":"address"},{"name":"to","type":"address","internalType":"address"},{"name":"tokenId","type":"uint256","internalType":"uint256"}],"outputs":[],"stateMutability":"nonpayable"},{"type":"function","name":"safeTransferFrom","inputs":[{"name":"from","type":"address","internalType":"address"},{"name":"to","type":"address","internalType":"address"},{"name":"tokenId","type":"uint256","internalType":"uint256"},{"name":"data","type":"bytes","internalType":"bytes"}],"outputs":[],"stateMutability":"nonpayable"},{"type":"function","name":"setApprovalForAll","inputs":[{"name":"operator","type":"address","internalType":"address"},{"name":"approved","type":"bool","internalType":"bool"}],"outputs":[],"stateMutability":"nonpayable"},{"type":"function","name":"setBaseURI","inputs":[{"name":"_baseTokenURI","type":"string","internalType":"string"}],"outputs":[],"stateMutability":"nonpayable"},{"type":"function","name":"setTokenUri","inputs":[{"name":"_tokenId","type":"uint256","internalType":"uint256"},{"name":"_tokenURI","type":"string","internalType":"string"}],"outputs":[],"stateMutability":"nonpayable"},{"type":"function","name":"supportsInterface","inputs":[{"name":"_interfaceId","type":"bytes4","internalType":"bytes4"}],"outputs":[{"name":"","type":"bool","internalType":"bool"}],"stateMutability":"view"},{"type":"function","name":"symbol","inputs":[],"outputs":[{"name":"","type":"string","internalType":"string"}],"stateMutability":"view"},{"type":"function","name":"tokenURI","inputs":[{"name":"_tokenId","type":"uint256","internalType":"uint256"}],"outputs":[{"name":"","type":"string","internalType":"string"}],"stateMutability":"view"},{"type":"function","name":"transferFrom","inputs":[{"name":"from","type":"address","internalType":"address"},{"name":"to","type":"address","internalType":"address"},{"name":"tokenId","type":"uint256","internalType":"uint256"}],"outputs":[],"stateMutability":"nonpayable"},{"type":"function","name":"transferOwnership","inputs":[{"name":"newOwner","type":"address","internalType":"address"}],"outputs":[],"stateMutability":"nonpayable"},{"type":"function","name":"withdraw","inputs":[],"outputs":[],"stateMutability":"nonpayable"},{"type":"event","name":"Approval","inputs":[{"name":"owner","type":"address","indexed":true,"internalType":"address"},{"name":"approved","type":"address","indexed":true,"internalType":"address"},{"name":"tokenId","type":"uint256","indexed":true,"internalType":"uint256"}],"anonymous":false},{"type":"event","name":"ApprovalForAll","inputs":[{"name":"owner","type":"address","indexed":true,"internalType":"address"},{"name":"operator","type":"address","indexed":true,"internalType":"address"},{"name":"approved","type":"bool","indexed":false,"internalType":"bool"}],"anonymous":false},{"type":"event","name":"BatchMetadataUpdate","inputs":[{"name":"_fromTokenId","type":"uint256","indexed":false,"internalType":"uint256"},{"name":"_toTokenId","type":"uint256","indexed":false,"internalType":"uint256"}],"anonymous":false},{"type":"event","name":"MetadataUpdate","inputs":[{"name":"_tokenId","type":"uint256","indexed":false,"internalType":"uint256"}],"anonymous":false},{"type":"event","name":"OwnershipTransferred","inputs":[{"name":"previousOwner","type":"address","indexed":true,"internalType":"address"},{"name":"newOwner","type":"address","indexed":true,"internalType":"address"}],"anonymous":false},{"type":"event","name":"Transfer","inputs":[{"name":"from","type":"address","indexed":true,"internalType":"address"},{"name":"to","type":"address","indexed":true,"internalType":"address"},{"name":"tokenId","type":"uint256","indexed":true,"internalType":"uint256"}],"anonymous":false},{"type":"error","name":"AMOUNT_SENT_INSUFFICIENT","inputs":[]},{"type":"error","name":"ERC721IncorrectOwner","inputs":[{"name":"sender","type":"address","internalType":"address"},{"name":"tokenId","type":"uint256","internalType":"uint256"},{"name":"owner","type":"address","internalType":"address"}]},{"type":"error","name":"ERC721InsufficientApproval","inputs":[{"name":"operator","type":"address","internalType":"address"},{"name":"tokenId","type":"uint256","internalType":"uint256"}]},{"type":"error","name":"ERC721InvalidApprover","inputs":[{"name":"approver","type":"address","internalType":"address"}]},{"type":"error","name":"ERC721InvalidOperator","inputs":[{"name":"operator","type":"address","internalType":"address"}]},{"type":"error","name":"ERC721InvalidOwner","inputs":[{"name":"owner","type":"address","internalType":"address"}]},{"type":"error","name":"ERC721InvalidReceiver","inputs":[{"name":"receiver","type":"address","internalType":"address"}]},{"type":"error","name":"ERC721InvalidSender","inputs":[{"name":"sender","type":"address","internalType":"address"}]},{"type":"error","name":"ERC721NonexistentToken","inputs":[{"name":"tokenId","type":"uint256","internalType":"uint256"}]},{"type":"error","name":"OwnableInvalidOwner","inputs":[{"name":"owner","type":"address","internalType":"address"}]},{"type":"error","name":"OwnableUnauthorizedAccount","inputs":[{"name":"account","type":"address","internalType":"address"}]}],"bytecode":{"object":"0x60806040523480156200001157600080fd5b503360405180604001604052806007815260200166434f534d49455360c81b8152506040518060400160405280600481526020016343534d4560e01b8152508160009081620000619190620001ab565b506001620000708282620001ab565b5050506001600160a01b038116620000a257604051631e4fbdf760e01b81526000600482015260240160405180910390fd5b620000ad81620000b4565b5062000277565b600780546001600160a01b038381166001600160a01b0319831681179093556040519116919082907f8be0079c531659141344cd1fd0a4f28419497f9722a3daafe3b4186f6b6457e090600090a35050565b634e487b7160e01b600052604160045260246000fd5b600181811c908216806200013157607f821691505b6020821081036200015257634e487b7160e01b600052602260045260246000fd5b50919050565b601f821115620001a657600081815260208120601f850160051c81016020861015620001815750805b601f850160051c820191505b81811015620001a2578281556001016200018d565b5050505b505050565b81516001600160401b03811115620001c757620001c762000106565b620001df81620001d884546200011c565b8462000158565b602080601f831160018114620002175760008415620001fe5750858301515b600019600386901b1c1916600185901b178555620001a2565b600085815260208120601f198616915b82811015620002485788860151825594840194600190910190840162000227565b5085821015620002675787850151600019600388901b60f8161c191681555b5050505050600190811b01905550565b6116c380620002876000396000f3fe60806040526004361061011f5760003560e01c806370a08231116100a0578063b88d4fde11610064578063b88d4fde14610320578063c87b56dd14610340578063d204c45e14610360578063e985e9c514610373578063f2fde38b1461039357600080fd5b806370a082311461028a578063715018a6146102b85780638da5cb5b146102cd57806395d89b41146102eb578063a22cb4651461030057600080fd5b80633ccfd60b116100e75780633ccfd60b146101f557806342842e0e1461020a57806355f804b31461022a57806357f7789e1461024a5780636352211e1461026a57600080fd5b806301ffc9a71461012457806306fdde0314610159578063081812fc1461017b578063095ea7b3146101b357806323b872dd146101d5575b600080fd5b34801561013057600080fd5b5061014461013f366004611114565b6103b3565b60405190151581526020015b60405180910390f35b34801561016557600080fd5b5061016e6103c4565b6040516101509190611181565b34801561018757600080fd5b5061019b610196366004611194565b610456565b6040516001600160a01b039091168152602001610150565b3480156101bf57600080fd5b506101d36101ce3660046111c9565b61047f565b005b3480156101e157600080fd5b506101d36101f03660046111f3565b61048e565b34801561020157600080fd5b506101d361051e565b34801561021657600080fd5b506101d36102253660046111f3565b6105c7565b34801561023657600080fd5b506101d36102453660046112db565b6105e2565b34801561025657600080fd5b506101d3610265366004611310565b6105f6565b34801561027657600080fd5b5061019b610285366004611194565b610608565b34801561029657600080fd5b506102aa6102a5366004611357565b610613565b604051908152602001610150565b3480156102c457600080fd5b506101d361065b565b3480156102d957600080fd5b506007546001600160a01b031661019b565b3480156102f757600080fd5b5061016e61066f565b34801561030c57600080fd5b506101d361031b366004611372565b61067e565b34801561032c57600080fd5b506101d361033b3660046113ae565b610689565b34801561034c57600080fd5b5061016e61035b366004611194565b6106a0565b6101d361036e36600461142a565b6106ab565b34801561037f57600080fd5b5061014461038e366004611462565b6106fe565b34801561039f57600080fd5b506101d36103ae366004611357565b61072c565b60006103be8261076a565b92915050565b6060600080546103d390611495565b80601f01602080910402602001604051908101604052809291908181526020018280546103ff90611495565b801561044c5780601f106104215761010080835404028352916020019161044c565b820191906000526020600020905b81548152906001019060200180831161042f57829003601f168201915b5050505050905090565b60006104618261078f565b506000828152600460205260409020546001600160a01b03166103be565b61048a8282336107c8565b5050565b6001600160a01b0382166104bd57604051633250574960e11b8152600060048201526024015b60405180910390fd5b60006104ca8383336107d5565b9050836001600160a01b0316816001600160a01b031614610518576040516364283d7b60e01b81526001600160a01b03808616600483015260248201849052821660448201526064016104b4565b50505050565b6105266108ce565b60405147903390600090829084908381818185875af1925050503d806000811461056c576040519150601f19603f3d011682016040523d82523d6000602084013e610571565b606091505b50509050806105c25760405162461bcd60e51b815260206004820152601860248201527f4661696c656420746f207769746864726177206574686572000000000000000060448201526064016104b4565b505050565b6105c283838360405180602001604052806000815250610689565b6105ea6108ce565b600961048a828261151d565b6105fe6108ce565b61048a82826108fb565b60006103be8261078f565b60006001600160a01b03821661063f576040516322718ad960e21b8152600060048201526024016104b4565b506001600160a01b031660009081526003602052604090205490565b6106636108ce565b61066d600061094b565b565b6060600180546103d390611495565b61048a33838361099d565b61069484848461048e565b61051884848484610a3c565b60606103be82610b65565b66b1a2bc2ec500003410156106d357604051634a925a7f60e01b815260040160405180910390fd5b60088054600091826106e4836115dd565b9190505590506106f48382610c69565b6105c281836108fb565b6001600160a01b03918216600090815260056020908152604080832093909416825291909152205460ff1690565b6107346108ce565b6001600160a01b03811661075e57604051631e4fbdf760e01b8152600060048201526024016104b4565b6107678161094b565b50565b60006001600160e01b03198216632483248360e11b14806103be57506103be82610c83565b6000818152600260205260408120546001600160a01b0316806103be57604051637e27328960e01b8152600481018490526024016104b4565b6105c28383836001610cd3565b6000828152600260205260408120546001600160a01b039081169083161561080257610802818486610dd9565b6001600160a01b038116156108405761081f600085600080610cd3565b6001600160a01b038116600090815260036020526040902080546000190190555b6001600160a01b0385161561086f576001600160a01b0385166000908152600360205260409020805460010190555b60008481526002602052604080822080546001600160a01b0319166001600160a01b0389811691821790925591518793918516917fddf252ad1be2c89b69c2b068fc378daa952ba7f163c4a11628f55a4df523b3ef91a4949350505050565b6007546001600160a01b0316331461066d5760405163118cdaa760e01b81523360048201526024016104b4565b6000828152600660205260409020610913828261151d565b506040518281527ff8e1a15aba9398e019f0b49df1a4fde98ee17ae345cb5f6b5e2c27f5033e8ce79060200160405180910390a15050565b600780546001600160a01b038381166001600160a01b0319831681179093556040519116919082907f8be0079c531659141344cd1fd0a4f28419497f9722a3daafe3b4186f6b6457e090600090a35050565b6001600160a01b0382166109cf57604051630b61174360e31b81526001600160a01b03831660048201526024016104b4565b6001600160a01b03838116600081815260056020908152604080832094871680845294825291829020805460ff191686151590811790915591519182527f17307eab39ab6107e8899845ad3d59bd9653f200f220920489ca2b5937696c31910160405180910390a3505050565b6001600160a01b0383163b1561051857604051630a85bd0160e11b81526001600160a01b0384169063150b7a0290610a7e903390889087908790600401611604565b6020604051808303816000875af1925050508015610ab9575060408051601f3d908101601f19168201909252610ab691810190611641565b60015b610b22573d808015610ae7576040519150601f19603f3d011682016040523d82523d6000602084013e610aec565b606091505b508051600003610b1a57604051633250574960e11b81526001600160a01b03851660048201526024016104b4565b805181602001fd5b6001600160e01b03198116630a85bd0160e11b14610b5e57604051633250574960e11b81526001600160a01b03851660048201526024016104b4565b5050505050565b6060610b708261078f565b5060008281526006602052604081208054610b8a90611495565b80601f0160208091040260200160405190810160405280929190818152602001828054610bb690611495565b8015610c035780601f10610bd857610100808354040283529160200191610c03565b820191906000526020600020905b815481529060010190602001808311610be657829003601f168201915b505050505090506000610c14610e3d565b90508051600003610c26575092915050565b815115610c58578082604051602001610c4092919061165e565b60405160208183030381529060405292505050919050565b610c6184610e4c565b949350505050565b61048a828260405180602001604052806000815250610eb4565b60006001600160e01b031982166380ac58cd60e01b1480610cb457506001600160e01b03198216635b5e139f60e01b145b806103be57506301ffc9a760e01b6001600160e01b03198316146103be565b8080610ce757506001600160a01b03821615155b15610da9576000610cf78461078f565b90506001600160a01b03831615801590610d235750826001600160a01b0316816001600160a01b031614155b8015610d365750610d3481846106fe565b155b15610d5f5760405163a9fbf51f60e01b81526001600160a01b03841660048201526024016104b4565b8115610da75783856001600160a01b0316826001600160a01b03167f8c5be1e5ebec7d5bd14f71427d1e84f3dd0314c0f7b2291e5b200ac8c7c3b92560405160405180910390a45b505b5050600090815260046020526040902080546001600160a01b0319166001600160a01b0392909216919091179055565b610de4838383610ecb565b6105c2576001600160a01b038316610e1257604051637e27328960e01b8152600481018290526024016104b4565b60405163177e802f60e01b81526001600160a01b0383166004820152602481018290526044016104b4565b6060600980546103d390611495565b6060610e578261078f565b506000610e62610e3d565b90506000815111610e825760405180602001604052806000815250610ead565b80610e8c84610f2e565b604051602001610e9d92919061165e565b6040516020818303038152906040525b9392505050565b610ebe8383610fc1565b6105c26000848484610a3c565b60006001600160a01b03831615801590610c615750826001600160a01b0316846001600160a01b03161480610f055750610f0584846106fe565b80610c615750506000908152600460205260409020546001600160a01b03908116911614919050565b60606000610f3b83611026565b600101905060008167ffffffffffffffff811115610f5b57610f5b61122f565b6040519080825280601f01601f191660200182016040528015610f85576020820181803683370190505b5090508181016020015b600019016f181899199a1a9b1b9c1cb0b131b232b360811b600a86061a8153600a8504945084610f8f57509392505050565b6001600160a01b038216610feb57604051633250574960e11b8152600060048201526024016104b4565b6000610ff9838360006107d5565b90506001600160a01b038116156105c2576040516339e3563760e11b8152600060048201526024016104b4565b60008072184f03e93ff9f4daa797ed6e38ed64bf6a1f0160401b83106110655772184f03e93ff9f4daa797ed6e38ed64bf6a1f0160401b830492506040015b6d04ee2d6d415b85acef81000000008310611091576d04ee2d6d415b85acef8100000000830492506020015b662386f26fc1000083106110af57662386f26fc10000830492506010015b6305f5e10083106110c7576305f5e100830492506008015b61271083106110db57612710830492506004015b606483106110ed576064830492506002015b600a83106103be5760010192915050565b6001600160e01b03198116811461076757600080fd5b60006020828403121561112657600080fd5b8135610ead816110fe565b60005b8381101561114c578181015183820152602001611134565b50506000910152565b6000815180845261116d816020860160208601611131565b601f01601f19169290920160200192915050565b602081526000610ead6020830184611155565b6000602082840312156111a657600080fd5b5035919050565b80356001600160a01b03811681146111c457600080fd5b919050565b600080604083850312156111dc57600080fd5b6111e5836111ad565b946020939093013593505050565b60008060006060848603121561120857600080fd5b611211846111ad565b925061121f602085016111ad565b9150604084013590509250925092565b634e487b7160e01b600052604160045260246000fd5b600067ffffffffffffffff808411156112605761126061122f565b604051601f8501601f19908116603f011681019082821181831017156112885761128861122f565b816040528093508581528686860111156112a157600080fd5b858560208301376000602087830101525050509392505050565b600082601f8301126112cc57600080fd5b610ead83833560208501611245565b6000602082840312156112ed57600080fd5b813567ffffffffffffffff81111561130457600080fd5b610c61848285016112bb565b6000806040838503121561132357600080fd5b82359150602083013567ffffffffffffffff81111561134157600080fd5b61134d858286016112bb565b9150509250929050565b60006020828403121561136957600080fd5b610ead826111ad565b6000806040838503121561138557600080fd5b61138e836111ad565b9150602083013580151581146113a357600080fd5b809150509250929050565b600080600080608085870312156113c457600080fd5b6113cd856111ad565b93506113db602086016111ad565b925060408501359150606085013567ffffffffffffffff8111156113fe57600080fd5b8501601f8101871361140f57600080fd5b61141e87823560208401611245565b91505092959194509250565b6000806040838503121561143d57600080fd5b611446836111ad565b9150602083013567ffffffffffffffff81111561134157600080fd5b6000806040838503121561147557600080fd5b61147e836111ad565b915061148c602084016111ad565b90509250929050565b600181811c908216806114a957607f821691505b6020821081036114c957634e487b7160e01b600052602260045260246000fd5b50919050565b601f8211156105c257600081815260208120601f850160051c810160208610156114f65750805b601f850160051c820191505b8181101561151557828155600101611502565b505050505050565b815167ffffffffffffffff8111156115375761153761122f565b61154b816115458454611495565b846114cf565b602080601f83116001811461158057600084156115685750858301515b600019600386901b1c1916600185901b178555611515565b600085815260208120601f198616915b828110156115af57888601518255948401946001909101908401611590565b50858210156115cd5787850151600019600388901b60f8161c191681555b5050505050600190811b01905550565b6000600182016115fd57634e487b7160e01b600052601160045260246000fd5b5060010190565b6001600160a01b038581168252841660208201526040810183905260806060820181905260009061163790830184611155565b9695505050505050565b60006020828403121561165357600080fd5b8151610ead816110fe565b60008351611670818460208801611131565b835190830190611684818360208801611131565b0194935050505056fea2646970667358221220ee832b68623328e8998c37076845ec7ba650900247dd99b14c904623961cad5a64736f6c63430008140033","linkReferences":{}},"methodIdentifiers":{"approve(address,uint256)":"095ea7b3","balanceOf(address)":"70a08231","getApproved(uint256)":"081812fc","isApprovedForAll(address,address)":"e985e9c5","name()":"06fdde03","owner()":"8da5cb5b","ownerOf(uint256)":"6352211e","renounceOwnership()":"715018a6","safeMint(address,string)":"d204c45e","safeTransferFrom(address,address,uint256)":"42842e0e","safeTransferFrom(address,address,uint256,bytes)":"b88d4fde","setApprovalForAll(address,bool)":"a22cb465","setBaseURI(string)":"55f804b3","setTokenUri(uint256,string)":"57f7789e","supportsInterface(bytes4)":"01ffc9a7","symbol()":"95d89b41","tokenURI(uint256)":"c87b56dd","transferFrom(address,address,uint256)":"23b872dd","transferOwnership(address)":"f2fde38b","withdraw()":"3ccfd60b"},"id":37}